{
  "contractName": "Exchange",
  "abi": [
    {
      "inputs": [
        {
          "internalType": "contract ERC20Improved",
          "name": "erc20Improved",
          "type": "address"
        }
      ],
      "stateMutability": "nonpayable",
      "type": "constructor"
    },
    {
      "inputs": [
        {
          "internalType": "address",
          "name": "",
          "type": "address"
        }
      ],
      "name": "balanceOf",
      "outputs": [
        {
          "internalType": "uint256",
          "name": "",
          "type": "uint256"
        }
      ],
      "stateMutability": "view",
      "type": "function",
      "constant": true
    },
    {
      "inputs": [],
      "name": "totalSupply",
      "outputs": [
        {
          "internalType": "uint256",
          "name": "",
          "type": "uint256"
        }
      ],
      "stateMutability": "view",
      "type": "function",
      "constant": true
    },
    {
      "inputs": [],
      "name": "getContractOwner",
      "outputs": [
        {
          "internalType": "address",
          "name": "",
          "type": "address"
        }
      ],
      "stateMutability": "view",
      "type": "function",
      "constant": true
    },
    {
      "inputs": [],
      "name": "getTotalAmtEther",
      "outputs": [
        {
          "internalType": "uint256",
          "name": "balanceAmt",
          "type": "uint256"
        }
      ],
      "stateMutability": "view",
      "type": "function",
      "constant": true
    },
    {
      "inputs": [],
      "name": "getTotalAmtERC20",
      "outputs": [
        {
          "internalType": "uint256",
          "name": "balanceAmt",
          "type": "uint256"
        }
      ],
      "stateMutability": "view",
      "type": "function",
      "constant": true
    },
    {
      "inputs": [],
      "name": "getCommissionFeeEarned",
      "outputs": [
        {
          "internalType": "uint256",
          "name": "balanceAmount",
          "type": "uint256"
        }
      ],
      "stateMutability": "view",
      "type": "function",
      "constant": true
    },
    {
      "inputs": [],
      "name": "transferCommisionFeeEarned",
      "outputs": [],
      "stateMutability": "nonpayable",
      "type": "function"
    },
    {
      "inputs": [
        {
          "internalType": "uint256",
          "name": "value",
          "type": "uint256"
        }
      ],
      "name": "addLiquidityEther",
      "outputs": [],
      "stateMutability": "payable",
      "type": "function",
      "payable": true
    },
    {
      "inputs": [
        {
          "internalType": "uint256",
          "name": "value",
          "type": "uint256"
        }
      ],
      "name": "addLiquidityERC20",
      "outputs": [],
      "stateMutability": "payable",
      "type": "function",
      "payable": true
    },
    {
      "inputs": [
        {
          "internalType": "uint256",
          "name": "amount",
          "type": "uint256"
        }
      ],
      "name": "burn",
      "outputs": [],
      "stateMutability": "payable",
      "type": "function",
      "payable": true
    },
    {
      "inputs": [
        {
          "internalType": "uint256",
          "name": "newExchangeRate",
          "type": "uint256"
        }
      ],
      "name": "setExchangeRate",
      "outputs": [],
      "stateMutability": "nonpayable",
      "type": "function"
    },
    {
      "inputs": [
        {
          "internalType": "uint256",
          "name": "amtErc20In",
          "type": "uint256"
        }
      ],
      "name": "exchangeErc20ToEther",
      "outputs": [],
      "stateMutability": "payable",
      "type": "function",
      "payable": true
    },
    {
      "inputs": [
        {
          "internalType": "uint256",
          "name": "amtEtherIn",
          "type": "uint256"
        }
      ],
      "name": "exchangeEtherToErc20",
      "outputs": [],
      "stateMutability": "payable",
      "type": "function",
      "payable": true
    }
  ],
  "bytecode": "0x6080604052336000806101000a81548173ffffffffffffffffffffffffffffffffffffffff021916908373ffffffffffffffffffffffffffffffffffffffff160217905550600060025560006003556706f05b59d3b20000600455600060075534801561006b57600080fd5b50604051610fae380380610fae833981810160405281019061008d91906100e9565b80600160006101000a81548173ffffffffffffffffffffffffffffffffffffffff021916908373ffffffffffffffffffffffffffffffffffffffff1602179055505061016d565b6000815190506100e381610156565b92915050565b6000602082840312156100fb57600080fd5b6000610109848285016100d4565b91505092915050565b600061011d82610136565b9050919050565b600061012f82610112565b9050919050565b600073ffffffffffffffffffffffffffffffffffffffff82169050919050565b61015f81610124565b811461016a57600080fd5b50565b610e328061017c6000396000f3fe6080604052600436106100c25760003560e01c80635ecbff1e1161007f57806393f3f0b91161005957806393f3f0b91461021b578063b11447dc14610237578063b7e39a5a14610262578063db068e0e1461027e576100c2565b80635ecbff1e1461019757806370a08231146101c257806376bc9ae4146101ff576100c2565b806318160ddd146100c75780631f99ff88146100f257806331c0b2a51461010e57806342966c6814610139578063442890d514610155578063486360af14610180575b600080fd5b3480156100d357600080fd5b506100dc6102a7565b6040516100e99190610bab565b60405180910390f35b61010c60048036038101906101079190610ab1565b6102ad565b005b34801561011a57600080fd5b50610123610332565b6040516101309190610bab565b60405180910390f35b610153600480360381019061014e9190610ab1565b61033c565b005b34801561016157600080fd5b5061016a6104e0565b6040516101779190610b07565b60405180910390f35b34801561018c57600080fd5b50610195610509565b005b3480156101a357600080fd5b506101ac6105cc565b6040516101b99190610bab565b60405180910390f35b3480156101ce57600080fd5b506101e960048036038101906101e49190610a5f565b6105d6565b6040516101f69190610bab565b60405180910390f35b61021960048036038101906102149190610ab1565b6105ee565b005b61023560048036038101906102309190610ab1565b61079b565b005b34801561024357600080fd5b5061024c6107b9565b6040516102599190610bab565b60405180910390f35b61027c60048036038101906102779190610ab1565b6107c3565b005b34801561028a57600080fd5b506102a560048036038101906102a09190610ab1565b610966565b005b60055481565b60008054906101000a900473ffffffffffffffffffffffffffffffffffffffff1673ffffffffffffffffffffffffffffffffffffffff166108fc829081150290604051600060405180830381858888f19350505050158015610313573d6000803e3d6000fd5b50610329816002546109c890919063ffffffff16565b60028190555050565b6000600254905090565b6103af81600660008060009054906101000a900473ffffffffffffffffffffffffffffffffffffffff1673ffffffffffffffffffffffffffffffffffffffff1673ffffffffffffffffffffffffffffffffffffffff168152602001908152602001600020546109de90919063ffffffff16565b600660008060009054906101000a900473ffffffffffffffffffffffffffffffffffffffff1673ffffffffffffffffffffffffffffffffffffffff1673ffffffffffffffffffffffffffffffffffffffff16815260200190815260200160002081905550610428816005546109de90919063ffffffff16565b600581905550600160009054906101000a900473ffffffffffffffffffffffffffffffffffffffff1673ffffffffffffffffffffffffffffffffffffffff16639dc29fac60008054906101000a900473ffffffffffffffffffffffffffffffffffffffff16836040518363ffffffff1660e01b81526004016104ab929190610b22565b600060405180830381600087803b1580156104c557600080fd5b505af11580156104d9573d6000803e3d6000fd5b5050505050565b60008060009054906101000a900473ffffffffffffffffffffffffffffffffffffffff16905090565b60008054906101000a900473ffffffffffffffffffffffffffffffffffffffff1673ffffffffffffffffffffffffffffffffffffffff163373ffffffffffffffffffffffffffffffffffffffff161461056157600080fd5b60008054906101000a900473ffffffffffffffffffffffffffffffffffffffff1673ffffffffffffffffffffffffffffffffffffffff166108fc6007549081150290604051600060405180830381858888f193505050501580156105c9573d6000803e3d6000fd5b50565b6000600754905090565b60066020528060005260406000206000915090505481565b8034146105fa57600080fd5b60006106138261060e6103e56103e86109f4565b610a0a565b905060008054906101000a900473ffffffffffffffffffffffffffffffffffffffff1673ffffffffffffffffffffffffffffffffffffffff166108fc829081150290604051600060405180830381858888f1935050505015801561067b573d6000803e3d6000fd5b50600160009054906101000a900473ffffffffffffffffffffffffffffffffffffffff1673ffffffffffffffffffffffffffffffffffffffff1663a9059cbb33600454846106c99190610c1c565b6040518363ffffffff1660e01b81526004016106e6929190610b82565b602060405180830381600087803b15801561070057600080fd5b505af1158015610714573d6000803e3d6000fd5b505050506040513d601f19601f820116820180604052508101906107389190610a88565b50806002546107479190610bc6565b6002819055506004548161075b9190610c1c565b6003546107689190610ca7565b6003819055506107848261077f60036103e86109f4565b610a0a565b6007546107919190610bc6565b6007819055505050565b6107b0816003546109c890919063ffffffff16565b60038190555050565b6000600354905090565b600160009054906101000a900473ffffffffffffffffffffffffffffffffffffffff1673ffffffffffffffffffffffffffffffffffffffff166323b872dd3360008054906101000a900473ffffffffffffffffffffffffffffffffffffffff16846040518463ffffffff1660e01b815260040161084293929190610b4b565b602060405180830381600087803b15801561085c57600080fd5b505af1158015610870573d6000803e3d6000fd5b505050506040513d601f19601f820116820180604052508101906108949190610a88565b5060006108bb826004546108a89190610c4d565b6108b66103e56103e86109f4565b610a0a565b90503373ffffffffffffffffffffffffffffffffffffffff166108fc829081150290604051600060405180830381858888f19350505050158015610903573d6000803e3d6000fd5b50806002546109129190610ca7565b600281905550816003546109269190610bc6565b60038190555061094f8260045461093d9190610c4d565b61094a60036103e86109f4565b610a0a565b60075461095c9190610bc6565b6007819055505050565b60008054906101000a900473ffffffffffffffffffffffffffffffffffffffff1673ffffffffffffffffffffffffffffffffffffffff163373ffffffffffffffffffffffffffffffffffffffff16146109be57600080fd5b8060048190555050565b600081836109d69190610bc6565b905092915050565b600081836109ec9190610ca7565b905092915050565b60008183610a029190610c1c565b905092915050565b60008183610a189190610c4d565b905092915050565b600081359050610a2f81610db7565b92915050565b600081519050610a4481610dce565b92915050565b600081359050610a5981610de5565b92915050565b600060208284031215610a7157600080fd5b6000610a7f84828501610a20565b91505092915050565b600060208284031215610a9a57600080fd5b6000610aa884828501610a35565b91505092915050565b600060208284031215610ac357600080fd5b6000610ad184828501610a4a565b91505092915050565b610ae381610d23565b82525050565b610af281610cdb565b82525050565b610b0181610d19565b82525050565b6000602082019050610b1c6000830184610ae9565b92915050565b6000604082019050610b376000830185610ada565b610b446020830184610af8565b9392505050565b6000606082019050610b606000830186610ae9565b610b6d6020830185610ada565b610b7a6040830184610af8565b949350505050565b6000604082019050610b976000830185610ae9565b610ba46020830184610af8565b9392505050565b6000602082019050610bc06000830184610af8565b92915050565b6000610bd182610d19565b9150610bdc83610d19565b9250827fffffffffffffffffffffffffffffffffffffffffffffffffffffffffffffffff03821115610c1157610c10610d59565b5b828201905092915050565b6000610c2782610d19565b9150610c3283610d19565b925082610c4257610c41610d88565b5b828204905092915050565b6000610c5882610d19565b9150610c6383610d19565b9250817fffffffffffffffffffffffffffffffffffffffffffffffffffffffffffffffff0483118215151615610c9c57610c9b610d59565b5b828202905092915050565b6000610cb282610d19565b9150610cbd83610d19565b925082821015610cd057610ccf610d59565b5b828203905092915050565b6000610ce682610cf9565b9050919050565b60008115159050919050565b600073ffffffffffffffffffffffffffffffffffffffff82169050919050565b6000819050919050565b6000610d2e82610d35565b9050919050565b6000610d4082610d47565b9050919050565b6000610d5282610cf9565b9050919050565b7f4e487b7100000000000000000000000000000000000000000000000000000000600052601160045260246000fd5b7f4e487b7100000000000000000000000000000000000000000000000000000000600052601260045260246000fd5b610dc081610cdb565b8114610dcb57600080fd5b50565b610dd781610ced565b8114610de257600080fd5b50565b610dee81610d19565b8114610df957600080fd5b5056fea26469706673582212203049df9304e388ff9795e2f88201a7655e749ca3483960d51ba7cddf4db32dab64736f6c63430008040033",
  "immutableReferences": {},
  "source": "pragma solidity ^0.8.0;\r\n\r\nimport \"@openzeppelin/contracts/utils/math/SafeMath.sol\";\r\nimport \"./ERC20Improved.sol\";\r\n\r\ncontract Exchange {\r\n    using SafeMath for uint256;\r\n\r\n    address payable owner = payable(msg.sender);\r\n    ERC20Improved erc20Contract;\r\n    enum TransactionTypes {EtherToErc, ErcToEther}\r\n\r\n    // Make use of SafeMath to do calculation that will not be result in overflow / incorrectness\r\n    using SafeMath for uint256;\r\n\r\n    uint256 amtEtherTotal = 0 ether;\r\n    uint256 amtErc20Total = 0 ether;\r\n    // TODO: Change this arbitrary value to something that makes more sense\r\n    uint256 exchangeRateEtherToErc = 0.5 ether;\r\n\r\n    // TODO: This variable might not be needed depending on the behaviour of _burn() function\r\n    uint256 public totalSupply;\r\n    mapping(address => uint) public balanceOf;\r\n    uint256 commissionFee = 0 ether;\r\n\r\n    constructor(\r\n        ERC20Improved erc20Improved\r\n    ) {\r\n        erc20Contract = erc20Improved;\r\n    }\r\n\r\n    struct Transaction {\r\n        address user;\r\n        TransactionTypes transactionType;\r\n        uint256 transactionRate;\r\n        uint256 amtEther;\r\n        uint256 amtErc;\r\n        uint256 date;\r\n    }\r\n\r\n    modifier onlyOwner {\r\n        require(msg.sender == owner);\r\n        _;\r\n    }\r\n\r\n    function getContractOwner() external view returns (address) {\r\n        return owner;\r\n    }\r\n\r\n    function getTotalAmtEther() external view returns (uint256 balanceAmt) {\r\n        return amtEtherTotal;\r\n    }\r\n\r\n    function getTotalAmtERC20() external view returns (uint256 balanceAmt) {\r\n        return amtErc20Total;\r\n    }\r\n\r\n    function getCommissionFeeEarned()\r\n        external\r\n        view\r\n        returns (uint256 balanceAmount)\r\n    {\r\n        return commissionFee;\r\n    }\r\n\r\n    //transferCommisionFee()   @bharath    \r\n    function transferCommisionFeeEarned() external onlyOwner {\r\n        owner.transfer(commissionFee);\r\n    }\r\n\r\n    function addLiquidityEther(uint256 value) external payable {\r\n        //user.transfer() ether value. payable\r\n        owner.transfer(value);\r\n        amtEtherTotal = amtEtherTotal.add(value);\r\n    }\r\n\r\n    function addLiquidityERC20(uint256 value) external payable {\r\n        //mint the amount of erc20 in frontend\r\n        amtErc20Total = amtErc20Total.add(value);\r\n    }\r\n\r\n    // Only ERC20 contract owner can burn\r\n    function burn(uint256 amount) public payable {\r\n        // Call the ERC20 _burn() contract too\r\n        balanceOf[owner] = balanceOf[owner].sub(amount);\r\n        totalSupply = totalSupply.sub(amount);\r\n        erc20Contract.burn(owner, amount); // ERC20 standard may not support burning tho?\r\n    }\r\n\r\n    /*function getCurrentPrice() public view returns (uint256) {   //lets just use manual exchange rate first\r\n        return amtEtherTotal / amtErc20Total;\r\n    }*/\r\n\r\n    function setExchangeRate(uint256 newExchangeRate) public onlyOwner {\r\n        exchangeRateEtherToErc = newExchangeRate;\r\n    }\r\n\r\n    function exchangeErc20ToEther(uint256 amtErc20In) public payable {\r\n        //erc20Contract.approve(msg.sender, amtErc20In);      //approve(this.address, amt), this step might need to be frontend now i think about it\r\n        erc20Contract.transferFrom(msg.sender, owner, amtErc20In);\r\n        uint256 amtEtherOut = SafeMath.mul(exchangeRateEtherToErc * amtErc20In, SafeMath.div(997, 1000));\r\n        payable(msg.sender).transfer(amtEtherOut);\r\n        amtEtherTotal = amtEtherTotal - amtEtherOut;\r\n        amtErc20Total = amtErc20Total + amtErc20In;\r\n        commissionFee =\r\n            commissionFee +\r\n            SafeMath.mul(exchangeRateEtherToErc * amtErc20In, SafeMath.div(3, 1000));\r\n    }\r\n\r\n    function exchangeEtherToErc20(uint256 amtEtherIn) public payable {\r\n        require(msg.value == amtEtherIn);\r\n        uint256 amtEtherInAfterFees = SafeMath.mul(amtEtherIn, SafeMath.div(997, 1000));\r\n        owner.transfer(amtEtherInAfterFees);\r\n        erc20Contract.transfer(\r\n            msg.sender,\r\n            amtEtherInAfterFees / exchangeRateEtherToErc\r\n        );\r\n        amtEtherTotal = amtEtherTotal + amtEtherInAfterFees;\r\n        amtErc20Total =\r\n            amtErc20Total -\r\n            amtEtherInAfterFees /\r\n            exchangeRateEtherToErc;\r\n        commissionFee = commissionFee + SafeMath.mul(amtEtherIn, SafeMath.div(3, 1000));\r\n    }\r\n}\r\n",
  "sourcePath": "C:/Users/Hans Sebastian/Desktop/LiquidityProvider/smart-contracts/contracts/Exchange.sol",
  "compiler": {
    "name": "solc",
    "version": "0.8.4+commit.c7e474f2.Emscripten.clang"
  },
  "schemaVersion": "3.4.1",
  "updatedAt": "2021-06-10T07:19:23.399Z",
  "networkType": "ethereum",
  "devdoc": {
    "kind": "dev",
    "methods": {},
    "version": 1
  },
  "userdoc": {
    "kind": "user",
    "methods": {},
    "version": 1
  }
}