{
  "contractName": "Exchange",
  "abi": [
    {
      "inputs": [
        {
          "internalType": "contract ERC20Improved",
          "name": "erc20Improved",
          "type": "address"
        }
      ],
      "stateMutability": "nonpayable",
      "type": "constructor"
    },
    {
      "inputs": [
        {
          "internalType": "address",
          "name": "",
          "type": "address"
        }
      ],
      "name": "balanceOf",
      "outputs": [
        {
          "internalType": "uint256",
          "name": "",
          "type": "uint256"
        }
      ],
      "stateMutability": "view",
      "type": "function",
      "constant": true
    },
    {
      "inputs": [],
      "name": "totalSupply",
      "outputs": [
        {
          "internalType": "uint256",
          "name": "",
          "type": "uint256"
        }
      ],
      "stateMutability": "view",
      "type": "function",
      "constant": true
    },
    {
      "inputs": [],
      "name": "getContractOwner",
      "outputs": [
        {
          "internalType": "address",
          "name": "",
          "type": "address"
        }
      ],
      "stateMutability": "view",
      "type": "function",
      "constant": true
    },
    {
      "inputs": [],
      "name": "getTotalAmtEther",
      "outputs": [
        {
          "internalType": "uint256",
          "name": "balanceAmt",
          "type": "uint256"
        }
      ],
      "stateMutability": "view",
      "type": "function",
      "constant": true
    },
    {
      "inputs": [],
      "name": "getTotalAmtERC20",
      "outputs": [
        {
          "internalType": "uint256",
          "name": "balanceAmt",
          "type": "uint256"
        }
      ],
      "stateMutability": "view",
      "type": "function",
      "constant": true
    },
    {
      "inputs": [
        {
          "internalType": "address",
          "name": "addr",
          "type": "address"
        }
      ],
      "name": "checkERC20Balance",
      "outputs": [
        {
          "internalType": "uint256",
          "name": "balanceERC20",
          "type": "uint256"
        }
      ],
      "stateMutability": "view",
      "type": "function",
      "constant": true
    },
    {
      "inputs": [],
      "name": "getExchangeRate",
      "outputs": [
        {
          "internalType": "uint256",
          "name": "exchangeRate",
          "type": "uint256"
        }
      ],
      "stateMutability": "view",
      "type": "function",
      "constant": true
    },
    {
      "inputs": [],
      "name": "getCommissionFeeEarned",
      "outputs": [
        {
          "internalType": "uint256",
          "name": "balanceAmount",
          "type": "uint256"
        }
      ],
      "stateMutability": "view",
      "type": "function",
      "constant": true
    },
    {
      "inputs": [],
      "name": "transferCommisionFeeEarned",
      "outputs": [],
      "stateMutability": "nonpayable",
      "type": "function"
    },
    {
      "inputs": [
        {
          "internalType": "uint256",
          "name": "value",
          "type": "uint256"
        }
      ],
      "name": "addLiquidityEther",
      "outputs": [],
      "stateMutability": "payable",
      "type": "function",
      "payable": true
    },
    {
      "inputs": [
        {
          "internalType": "uint256",
          "name": "value",
          "type": "uint256"
        }
      ],
      "name": "addLiquidityERC20",
      "outputs": [],
      "stateMutability": "payable",
      "type": "function",
      "payable": true
    },
    {
      "inputs": [
        {
          "internalType": "uint256",
          "name": "amount",
          "type": "uint256"
        }
      ],
      "name": "burn",
      "outputs": [],
      "stateMutability": "payable",
      "type": "function",
      "payable": true
    },
    {
      "inputs": [
        {
          "internalType": "uint256",
          "name": "newExchangeRate",
          "type": "uint256"
        }
      ],
      "name": "setExchangeRate",
      "outputs": [],
      "stateMutability": "nonpayable",
      "type": "function"
    },
    {
      "inputs": [
        {
          "internalType": "uint256",
          "name": "amtErc20In",
          "type": "uint256"
        }
      ],
      "name": "exchangeErc20ToEther",
      "outputs": [],
      "stateMutability": "payable",
      "type": "function",
      "payable": true
    },
    {
      "inputs": [
        {
          "internalType": "uint256",
          "name": "amtEtherIn",
          "type": "uint256"
        }
      ],
      "name": "exchangeEtherToErc20",
      "outputs": [],
      "stateMutability": "payable",
      "type": "function",
      "payable": true
    }
  ],
  "bytecode": "0x6080604052336000806101000a81548173ffffffffffffffffffffffffffffffffffffffff021916908373ffffffffffffffffffffffffffffffffffffffff160217905550600060025560006003556706f05b59d3b2000060045560006007553480156200006c57600080fd5b506040516200116b3803806200116b8339818101604052810190620000929190620000f1565b80600160006101000a81548173ffffffffffffffffffffffffffffffffffffffff021916908373ffffffffffffffffffffffffffffffffffffffff160217905550506200018a565b600081519050620000eb8162000170565b92915050565b6000602082840312156200010a57620001096200016b565b5b60006200011a84828501620000da565b91505092915050565b600062000130826200014b565b9050919050565b6000620001448262000123565b9050919050565b600073ffffffffffffffffffffffffffffffffffffffff82169050919050565b600080fd5b6200017b8162000137565b81146200018757600080fd5b50565b610fd1806200019a6000396000f3fe6080604052600436106100e85760003560e01c806370a082311161008a578063b11447dc11610059578063b11447dc1461029a578063b7e39a5a146102c5578063db068e0e146102e1578063e6aa216c1461030a576100e8565b806370a08231146101e857806376bc9ae41461022557806393f3f0b9146102415780639b3bc6fb1461025d576100e8565b806342966c68116100c657806342966c681461015f578063442890d51461017b578063486360af146101a65780635ecbff1e146101bd576100e8565b806318160ddd146100ed5780631f99ff881461011857806331c0b2a514610134575b600080fd5b3480156100f957600080fd5b50610102610335565b60405161010f9190610d45565b60405180910390f35b610132600480360381019061012d9190610c1a565b61033b565b005b34801561014057600080fd5b506101496103c0565b6040516101569190610d45565b60405180910390f35b61017960048036038101906101749190610c1a565b6103ca565b005b34801561018757600080fd5b5061019061056e565b60405161019d9190610ca1565b60405180910390f35b3480156101b257600080fd5b506101bb610597565b005b3480156101c957600080fd5b506101d261065a565b6040516101df9190610d45565b60405180910390f35b3480156101f457600080fd5b5061020f600480360381019061020a9190610bc0565b610664565b60405161021c9190610d45565b60405180910390f35b61023f600480360381019061023a9190610c1a565b61067c565b005b61025b60048036038101906102569190610c1a565b610829565b005b34801561026957600080fd5b50610284600480360381019061027f9190610bc0565b610847565b6040516102919190610d45565b60405180910390f35b3480156102a657600080fd5b506102af6108fb565b6040516102bc9190610d45565b60405180910390f35b6102df60048036038101906102da9190610c1a565b610905565b005b3480156102ed57600080fd5b5061030860048036038101906103039190610c1a565b610aa8565b005b34801561031657600080fd5b5061031f610b0a565b60405161032c9190610d45565b60405180910390f35b60055481565b60008054906101000a900473ffffffffffffffffffffffffffffffffffffffff1673ffffffffffffffffffffffffffffffffffffffff166108fc829081150290604051600060405180830381858888f193505050501580156103a1573d6000803e3d6000fd5b506103b781600254610b1490919063ffffffff16565b60028190555050565b6000600254905090565b61043d81600660008060009054906101000a900473ffffffffffffffffffffffffffffffffffffffff1673ffffffffffffffffffffffffffffffffffffffff1673ffffffffffffffffffffffffffffffffffffffff16815260200190815260200160002054610b2a90919063ffffffff16565b600660008060009054906101000a900473ffffffffffffffffffffffffffffffffffffffff1673ffffffffffffffffffffffffffffffffffffffff1673ffffffffffffffffffffffffffffffffffffffff168152602001908152602001600020819055506104b681600554610b2a90919063ffffffff16565b600581905550600160009054906101000a900473ffffffffffffffffffffffffffffffffffffffff1673ffffffffffffffffffffffffffffffffffffffff16639dc29fac60008054906101000a900473ffffffffffffffffffffffffffffffffffffffff16836040518363ffffffff1660e01b8152600401610539929190610cbc565b600060405180830381600087803b15801561055357600080fd5b505af1158015610567573d6000803e3d6000fd5b5050505050565b60008060009054906101000a900473ffffffffffffffffffffffffffffffffffffffff16905090565b60008054906101000a900473ffffffffffffffffffffffffffffffffffffffff1673ffffffffffffffffffffffffffffffffffffffff163373ffffffffffffffffffffffffffffffffffffffff16146105ef57600080fd5b60008054906101000a900473ffffffffffffffffffffffffffffffffffffffff1673ffffffffffffffffffffffffffffffffffffffff166108fc6007549081150290604051600060405180830381858888f19350505050158015610657573d6000803e3d6000fd5b50565b6000600754905090565b60066020528060005260406000206000915090505481565b80341461068857600080fd5b60006106a18261069c6103e56103e8610b40565b610b56565b905060008054906101000a900473ffffffffffffffffffffffffffffffffffffffff1673ffffffffffffffffffffffffffffffffffffffff166108fc829081150290604051600060405180830381858888f19350505050158015610709573d6000803e3d6000fd5b50600160009054906101000a900473ffffffffffffffffffffffffffffffffffffffff1673ffffffffffffffffffffffffffffffffffffffff1663a9059cbb33600454846107579190610db6565b6040518363ffffffff1660e01b8152600401610774929190610d1c565b602060405180830381600087803b15801561078e57600080fd5b505af11580156107a2573d6000803e3d6000fd5b505050506040513d601f19601f820116820180604052508101906107c69190610bed565b50806002546107d59190610d60565b600281905550600454816107e99190610db6565b6003546107f69190610e41565b6003819055506108128261080d60036103e8610b40565b610b56565b60075461081f9190610d60565b6007819055505050565b61083e81600354610b1490919063ffffffff16565b60038190555050565b6000600160009054906101000a900473ffffffffffffffffffffffffffffffffffffffff1673ffffffffffffffffffffffffffffffffffffffff166370a08231836040518263ffffffff1660e01b81526004016108a49190610ca1565b60206040518083038186803b1580156108bc57600080fd5b505afa1580156108d0573d6000803e3d6000fd5b505050506040513d601f19601f820116820180604052508101906108f49190610c47565b9050919050565b6000600354905090565b600160009054906101000a900473ffffffffffffffffffffffffffffffffffffffff1673ffffffffffffffffffffffffffffffffffffffff166323b872dd3360008054906101000a900473ffffffffffffffffffffffffffffffffffffffff16846040518463ffffffff1660e01b815260040161098493929190610ce5565b602060405180830381600087803b15801561099e57600080fd5b505af11580156109b2573d6000803e3d6000fd5b505050506040513d601f19601f820116820180604052508101906109d69190610bed565b5060006109fd826004546109ea9190610de7565b6109f86103e56103e8610b40565b610b56565b90503373ffffffffffffffffffffffffffffffffffffffff166108fc829081150290604051600060405180830381858888f19350505050158015610a45573d6000803e3d6000fd5b5080600254610a549190610e41565b60028190555081600354610a689190610d60565b600381905550610a9182600454610a7f9190610de7565b610a8c60036103e8610b40565b610b56565b600754610a9e9190610d60565b6007819055505050565b60008054906101000a900473ffffffffffffffffffffffffffffffffffffffff1673ffffffffffffffffffffffffffffffffffffffff163373ffffffffffffffffffffffffffffffffffffffff1614610b0057600080fd5b8060048190555050565b6000600454905090565b60008183610b229190610d60565b905092915050565b60008183610b389190610e41565b905092915050565b60008183610b4e9190610db6565b905092915050565b60008183610b649190610de7565b905092915050565b600081359050610b7b81610f56565b92915050565b600081519050610b9081610f6d565b92915050565b600081359050610ba581610f84565b92915050565b600081519050610bba81610f84565b92915050565b600060208284031215610bd657610bd5610f51565b5b6000610be484828501610b6c565b91505092915050565b600060208284031215610c0357610c02610f51565b5b6000610c1184828501610b81565b91505092915050565b600060208284031215610c3057610c2f610f51565b5b6000610c3e84828501610b96565b91505092915050565b600060208284031215610c5d57610c5c610f51565b5b6000610c6b84828501610bab565b91505092915050565b610c7d81610ebd565b82525050565b610c8c81610e75565b82525050565b610c9b81610eb3565b82525050565b6000602082019050610cb66000830184610c83565b92915050565b6000604082019050610cd16000830185610c74565b610cde6020830184610c92565b9392505050565b6000606082019050610cfa6000830186610c83565b610d076020830185610c74565b610d146040830184610c92565b949350505050565b6000604082019050610d316000830185610c83565b610d3e6020830184610c92565b9392505050565b6000602082019050610d5a6000830184610c92565b92915050565b6000610d6b82610eb3565b9150610d7683610eb3565b9250827fffffffffffffffffffffffffffffffffffffffffffffffffffffffffffffffff03821115610dab57610daa610ef3565b5b828201905092915050565b6000610dc182610eb3565b9150610dcc83610eb3565b925082610ddc57610ddb610f22565b5b828204905092915050565b6000610df282610eb3565b9150610dfd83610eb3565b9250817fffffffffffffffffffffffffffffffffffffffffffffffffffffffffffffffff0483118215151615610e3657610e35610ef3565b5b828202905092915050565b6000610e4c82610eb3565b9150610e5783610eb3565b925082821015610e6a57610e69610ef3565b5b828203905092915050565b6000610e8082610e93565b9050919050565b60008115159050919050565b600073ffffffffffffffffffffffffffffffffffffffff82169050919050565b6000819050919050565b6000610ec882610ecf565b9050919050565b6000610eda82610ee1565b9050919050565b6000610eec82610e93565b9050919050565b7f4e487b7100000000000000000000000000000000000000000000000000000000600052601160045260246000fd5b7f4e487b7100000000000000000000000000000000000000000000000000000000600052601260045260246000fd5b600080fd5b610f5f81610e75565b8114610f6a57600080fd5b50565b610f7681610e87565b8114610f8157600080fd5b50565b610f8d81610eb3565b8114610f9857600080fd5b5056fea264697066735822122026a83fc9170477991c66c1122edbb0a66a863c247d83b4c6a6844b993f39517264736f6c63430008060033",
  "immutableReferences": {},
  "source": "pragma solidity ^0.8.0;\r\n\r\nimport \"@openzeppelin/contracts/utils/math/SafeMath.sol\";\r\nimport \"./ERC20Improved.sol\";\r\n\r\ncontract Exchange {\r\n    using SafeMath for uint256;\r\n\r\n    address payable owner = payable(msg.sender);\r\n    ERC20Improved erc20Contract;\r\n    enum TransactionTypes {EtherToErc, ErcToEther}\r\n\r\n    // Make use of SafeMath to do calculation that will not be result in overflow / incorrectness\r\n    using SafeMath for uint256;\r\n\r\n    uint256 amtEtherTotal = 0 ether;\r\n    uint256 amtErc20Total = 0 ether;\r\n    // TODO: Change this arbitrary value to something that makes more sense\r\n    uint256 exchangeRateEtherToErc = 0.5 ether;\r\n\r\n    // TODO: This variable might not be needed depending on the behaviour of _burn() function\r\n    uint256 public totalSupply;\r\n    mapping(address => uint256) public balanceOf;\r\n    uint256 commissionFee = 0 ether;\r\n\r\n    constructor(ERC20Improved erc20Improved) {\r\n        erc20Contract = erc20Improved;\r\n    }\r\n\r\n    struct Transaction {\r\n        address user;\r\n        TransactionTypes transactionType;\r\n        uint256 transactionRate;\r\n        uint256 amtEther;\r\n        uint256 amtErc;\r\n        uint256 date;\r\n    }\r\n\r\n    modifier onlyOwner {\r\n        require(msg.sender == owner);\r\n        _;\r\n    }\r\n\r\n    function getContractOwner() external view returns (address) {\r\n        return owner;\r\n    }\r\n\r\n    function getTotalAmtEther() external view returns (uint256 balanceAmt) {\r\n        return amtEtherTotal;\r\n    }\r\n\r\n    function getTotalAmtERC20() external view returns (uint256 balanceAmt) {\r\n        return amtErc20Total;\r\n    }\r\n    \r\n    function checkERC20Balance(address addr) external view returns (uint256 balanceERC20) {\r\n        return erc20Contract.balanceOf(addr);\r\n    }\r\n    \r\n    function getExchangeRate() external view returns (uint256 exchangeRate) {\r\n        return exchangeRateEtherToErc;\r\n    }\r\n\r\n    function getCommissionFeeEarned()\r\n        external\r\n        view\r\n        returns (uint256 balanceAmount)\r\n    {\r\n        return commissionFee;\r\n    }\r\n\r\n    //transferCommisionFee()   @bharath\r\n    function transferCommisionFeeEarned() external onlyOwner {\r\n        owner.transfer(commissionFee);\r\n    }\r\n\r\n    function addLiquidityEther(uint256 value) external payable {\r\n        //user.transfer() ether value. payable\r\n        owner.transfer(value);\r\n        amtEtherTotal = amtEtherTotal.add(value);\r\n    }\r\n\r\n    function addLiquidityERC20(uint256 value) external payable {\r\n        //mint the amount of erc20 in frontend\r\n        amtErc20Total = amtErc20Total.add(value);\r\n    }\r\n\r\n    // Only ERC20 contract owner can burn\r\n    function burn(uint256 amount) public payable {\r\n        // Call the ERC20 _burn() contract too\r\n        balanceOf[owner] = balanceOf[owner].sub(amount);\r\n        totalSupply = totalSupply.sub(amount);\r\n        erc20Contract.burn(owner, amount); // ERC20 standard may not support burning tho?\r\n    }\r\n\r\n    /*function getCurrentPrice() public view returns (uint256) {   //lets just use manual exchange rate first\r\n        return amtEtherTotal / amtErc20Total;\r\n    }*/\r\n\r\n    function setExchangeRate(uint256 newExchangeRate) public onlyOwner {\r\n        exchangeRateEtherToErc = newExchangeRate;\r\n    }\r\n\r\n    function exchangeErc20ToEther(uint256 amtErc20In) public payable {\r\n        //erc20Contract.approve(msg.sender, amtErc20In);      //approve(this.address, amt), this step might need to be frontend now i think about it\r\n        erc20Contract.transferFrom(msg.sender, owner, amtErc20In);\r\n        uint256 amtEtherOut =\r\n            SafeMath.mul(\r\n                exchangeRateEtherToErc * amtErc20In,\r\n                SafeMath.div(997, 1000)\r\n            );\r\n        payable(msg.sender).transfer(amtEtherOut);\r\n        amtEtherTotal = amtEtherTotal - amtEtherOut;\r\n        amtErc20Total = amtErc20Total + amtErc20In;\r\n        commissionFee =\r\n            commissionFee +\r\n            SafeMath.mul(\r\n                exchangeRateEtherToErc * amtErc20In,\r\n                SafeMath.div(3, 1000)\r\n            );\r\n    }\r\n\r\n    function exchangeEtherToErc20(uint256 amtEtherIn) public payable {\r\n        require(msg.value == amtEtherIn);\r\n        uint256 amtEtherInAfterFees =\r\n            SafeMath.mul(amtEtherIn, SafeMath.div(997, 1000));\r\n        owner.transfer(amtEtherInAfterFees);\r\n        erc20Contract.transfer(\r\n            msg.sender,\r\n            amtEtherInAfterFees / exchangeRateEtherToErc\r\n        );\r\n        amtEtherTotal = amtEtherTotal + amtEtherInAfterFees;\r\n        amtErc20Total =\r\n            amtErc20Total -\r\n            amtEtherInAfterFees /\r\n            exchangeRateEtherToErc;\r\n        commissionFee =\r\n            commissionFee +\r\n            SafeMath.mul(amtEtherIn, SafeMath.div(3, 1000));\r\n    }\r\n}\r\n",
  "sourcePath": "D:/liquidity-provider/LiquidityProvider/smart-contracts/contracts/Exchange.sol",
  "compiler": {
    "name": "solc",
    "version": "0.8.6+commit.11564f7e.Emscripten.clang"
  },
  "schemaVersion": "3.4.1",
  "updatedAt": "2021-06-28T02:55:23.604Z",
  "networkType": "ethereum",
  "devdoc": {
    "kind": "dev",
    "methods": {},
    "version": 1
  },
  "userdoc": {
    "kind": "user",
    "methods": {},
    "version": 1
  }
}