{
  "contractName": "Exchange",
  "abi": [
    {
      "inputs": [
        {
          "internalType": "contract ERC20",
          "name": "erc20Address",
          "type": "address"
        }
      ],
      "stateMutability": "nonpayable",
      "type": "constructor"
    },
    {
      "inputs": [
        {
          "internalType": "address",
          "name": "",
          "type": "address"
        }
      ],
      "name": "balanceOf",
      "outputs": [
        {
          "internalType": "uint256",
          "name": "",
          "type": "uint256"
        }
      ],
      "stateMutability": "view",
      "type": "function"
    },
    {
      "inputs": [],
      "name": "totalSupply",
      "outputs": [
        {
          "internalType": "uint256",
          "name": "",
          "type": "uint256"
        }
      ],
      "stateMutability": "view",
      "type": "function"
    },
    {
      "inputs": [],
      "name": "getContractOwner",
      "outputs": [
        {
          "internalType": "address",
          "name": "",
          "type": "address"
        }
      ],
      "stateMutability": "view",
      "type": "function"
    },
    {
      "inputs": [],
      "name": "getTotalAmtEther",
      "outputs": [
        {
          "internalType": "uint256",
          "name": "balanceAmt",
          "type": "uint256"
        }
      ],
      "stateMutability": "view",
      "type": "function"
    },
    {
      "inputs": [],
      "name": "getTotalAmtERC20",
      "outputs": [
        {
          "internalType": "uint256",
          "name": "balanceAmt",
          "type": "uint256"
        }
      ],
      "stateMutability": "view",
      "type": "function"
    },
    {
      "inputs": [],
      "name": "getCommissionFeeEarned",
      "outputs": [
        {
          "internalType": "uint256",
          "name": "balanceAmount",
          "type": "uint256"
        }
      ],
      "stateMutability": "view",
      "type": "function"
    },
    {
      "inputs": [],
      "name": "transferCommisionFeeEarned",
      "outputs": [],
      "stateMutability": "nonpayable",
      "type": "function"
    },
    {
      "inputs": [
        {
          "internalType": "uint256",
          "name": "value",
          "type": "uint256"
        }
      ],
      "name": "addLiquidityEther",
      "outputs": [],
      "stateMutability": "payable",
      "type": "function"
    },
    {
      "inputs": [
        {
          "internalType": "uint256",
          "name": "value",
          "type": "uint256"
        }
      ],
      "name": "addLiquidityERC20",
      "outputs": [],
      "stateMutability": "payable",
      "type": "function"
    },
    {
      "inputs": [
        {
          "internalType": "uint256",
          "name": "newExchangeRate",
          "type": "uint256"
        }
      ],
      "name": "setExchangeRate",
      "outputs": [],
      "stateMutability": "nonpayable",
      "type": "function"
    },
    {
      "inputs": [
        {
          "internalType": "uint256",
          "name": "amtErc20In",
          "type": "uint256"
        }
      ],
      "name": "exchangeErc20ToEther",
      "outputs": [],
      "stateMutability": "payable",
      "type": "function"
    },
    {
      "inputs": [
        {
          "internalType": "uint256",
          "name": "amtEtherIn",
          "type": "uint256"
        }
      ],
      "name": "exchangeEtherToErc20",
      "outputs": [],
      "stateMutability": "payable",
      "type": "function"
    }
  ],
  "bytecode": "0x6080604052336000806101000a81548173ffffffffffffffffffffffffffffffffffffffff021916908373ffffffffffffffffffffffffffffffffffffffff160217905550600060025560006003556706f05b59d3b20000600455600060075534801561006b57600080fd5b50604051610d94380380610d94833981810160405281019061008d91906100e9565b80600160006101000a81548173ffffffffffffffffffffffffffffffffffffffff021916908373ffffffffffffffffffffffffffffffffffffffff1602179055505061016d565b6000815190506100e381610156565b92915050565b6000602082840312156100fb57600080fd5b6000610109848285016100d4565b91505092915050565b600061011d82610136565b9050919050565b600061012f82610112565b9050919050565b600073ffffffffffffffffffffffffffffffffffffffff82169050919050565b61015f81610124565b811461016a57600080fd5b50565b610c188061017c6000396000f3fe6080604052600436106100a75760003560e01c806370a082311161006457806370a082311461018b57806376bc9ae4146101c857806393f3f0b9146101e4578063b11447dc14610200578063b7e39a5a1461022b578063db068e0e14610247576100a7565b806318160ddd146100ac5780631f99ff88146100d757806331c0b2a5146100f3578063442890d51461011e578063486360af146101495780635ecbff1e14610160575b600080fd5b3480156100b857600080fd5b506100c1610270565b6040516100ce9190610991565b60405180910390f35b6100f160048036038101906100ec91906108c0565b610276565b005b3480156100ff57600080fd5b506101086102fb565b6040516101159190610991565b60405180910390f35b34801561012a57600080fd5b50610133610305565b6040516101409190610916565b60405180910390f35b34801561015557600080fd5b5061015e61032e565b005b34801561016c57600080fd5b506101756103f1565b6040516101829190610991565b60405180910390f35b34801561019757600080fd5b506101b260048036038101906101ad919061086e565b6103fb565b6040516101bf9190610991565b60405180910390f35b6101e260048036038101906101dd91906108c0565b610413565b005b6101fe60048036038101906101f991906108c0565b6105c0565b005b34801561020c57600080fd5b506102156105de565b6040516102229190610991565b60405180910390f35b610245600480360381019061024091906108c0565b6105e8565b005b34801561025357600080fd5b5061026e600480360381019061026991906108c0565b61078b565b005b60055481565b60008054906101000a900473ffffffffffffffffffffffffffffffffffffffff1673ffffffffffffffffffffffffffffffffffffffff166108fc829081150290604051600060405180830381858888f193505050501580156102dc573d6000803e3d6000fd5b506102f2816002546107ed90919063ffffffff16565b60028190555050565b6000600254905090565b60008060009054906101000a900473ffffffffffffffffffffffffffffffffffffffff16905090565b60008054906101000a900473ffffffffffffffffffffffffffffffffffffffff1673ffffffffffffffffffffffffffffffffffffffff163373ffffffffffffffffffffffffffffffffffffffff161461038657600080fd5b60008054906101000a900473ffffffffffffffffffffffffffffffffffffffff1673ffffffffffffffffffffffffffffffffffffffff166108fc6007549081150290604051600060405180830381858888f193505050501580156103ee573d6000803e3d6000fd5b50565b6000600754905090565b60066020528060005260406000206000915090505481565b80341461041f57600080fd5b6000610438826104336103e56103e8610803565b610819565b905060008054906101000a900473ffffffffffffffffffffffffffffffffffffffff1673ffffffffffffffffffffffffffffffffffffffff166108fc829081150290604051600060405180830381858888f193505050501580156104a0573d6000803e3d6000fd5b50600160009054906101000a900473ffffffffffffffffffffffffffffffffffffffff1673ffffffffffffffffffffffffffffffffffffffff1663a9059cbb33600454846104ee9190610a02565b6040518363ffffffff1660e01b815260040161050b929190610968565b602060405180830381600087803b15801561052557600080fd5b505af1158015610539573d6000803e3d6000fd5b505050506040513d601f19601f8201168201806040525081019061055d9190610897565b508060025461056c91906109ac565b600281905550600454816105809190610a02565b60035461058d9190610a8d565b6003819055506105a9826105a460036103e8610803565b610819565b6007546105b691906109ac565b6007819055505050565b6105d5816003546107ed90919063ffffffff16565b60038190555050565b6000600354905090565b600160009054906101000a900473ffffffffffffffffffffffffffffffffffffffff1673ffffffffffffffffffffffffffffffffffffffff166323b872dd3360008054906101000a900473ffffffffffffffffffffffffffffffffffffffff16846040518463ffffffff1660e01b815260040161066793929190610931565b602060405180830381600087803b15801561068157600080fd5b505af1158015610695573d6000803e3d6000fd5b505050506040513d601f19601f820116820180604052508101906106b99190610897565b5060006106e0826004546106cd9190610a33565b6106db6103e56103e8610803565b610819565b90503373ffffffffffffffffffffffffffffffffffffffff166108fc829081150290604051600060405180830381858888f19350505050158015610728573d6000803e3d6000fd5b50806002546107379190610a8d565b6002819055508160035461074b91906109ac565b600381905550610774826004546107629190610a33565b61076f60036103e8610803565b610819565b60075461078191906109ac565b6007819055505050565b60008054906101000a900473ffffffffffffffffffffffffffffffffffffffff1673ffffffffffffffffffffffffffffffffffffffff163373ffffffffffffffffffffffffffffffffffffffff16146107e357600080fd5b8060048190555050565b600081836107fb91906109ac565b905092915050565b600081836108119190610a02565b905092915050565b600081836108279190610a33565b905092915050565b60008135905061083e81610b9d565b92915050565b60008151905061085381610bb4565b92915050565b60008135905061086881610bcb565b92915050565b60006020828403121561088057600080fd5b600061088e8482850161082f565b91505092915050565b6000602082840312156108a957600080fd5b60006108b784828501610844565b91505092915050565b6000602082840312156108d257600080fd5b60006108e084828501610859565b91505092915050565b6108f281610b09565b82525050565b61090181610ac1565b82525050565b61091081610aff565b82525050565b600060208201905061092b60008301846108f8565b92915050565b600060608201905061094660008301866108f8565b61095360208301856108e9565b6109606040830184610907565b949350505050565b600060408201905061097d60008301856108f8565b61098a6020830184610907565b9392505050565b60006020820190506109a66000830184610907565b92915050565b60006109b782610aff565b91506109c283610aff565b9250827fffffffffffffffffffffffffffffffffffffffffffffffffffffffffffffffff038211156109f7576109f6610b3f565b5b828201905092915050565b6000610a0d82610aff565b9150610a1883610aff565b925082610a2857610a27610b6e565b5b828204905092915050565b6000610a3e82610aff565b9150610a4983610aff565b9250817fffffffffffffffffffffffffffffffffffffffffffffffffffffffffffffffff0483118215151615610a8257610a81610b3f565b5b828202905092915050565b6000610a9882610aff565b9150610aa383610aff565b925082821015610ab657610ab5610b3f565b5b828203905092915050565b6000610acc82610adf565b9050919050565b60008115159050919050565b600073ffffffffffffffffffffffffffffffffffffffff82169050919050565b6000819050919050565b6000610b1482610b1b565b9050919050565b6000610b2682610b2d565b9050919050565b6000610b3882610adf565b9050919050565b7f4e487b7100000000000000000000000000000000000000000000000000000000600052601160045260246000fd5b7f4e487b7100000000000000000000000000000000000000000000000000000000600052601260045260246000fd5b610ba681610ac1565b8114610bb157600080fd5b50565b610bbd81610ad3565b8114610bc857600080fd5b50565b610bd481610aff565b8114610bdf57600080fd5b5056fea2646970667358221220a5853c8aaab2e20c3b1c80bee121d410ef0ba6d20b89a646a4a27dc38d4b6fda64736f6c63430008040033",
  "immutableReferences": {},
  "source": "pragma solidity ^0.8.0;\n\nimport \"@openzeppelin/contracts/utils/math/SafeMath.sol\";\nimport \"@openzeppelin/contracts/token/ERC20/ERC20.sol\";\n\ncontract Exchange {\n    using SafeMath for uint256;\n\n    address payable owner = payable(msg.sender);\n    ERC20 erc20Contract;\n    enum TransactionTypes {EtherToErc, ErcToEther}\n\n    // Make use of SafeMath to do calculation that will not be result in overflow / incorrectness\n    using SafeMath for uint256;\n\n    uint256 amtEtherTotal = 0 ether;\n    uint256 amtErc20Total = 0 ether;\n    // TODO: Change this arbitrary value to something that makes more sense\n    uint256 exchangeRateEtherToErc = 0.5 ether;\n\n    // TODO: This variable might not be needed depending on the behaviour of _burn() function\n    uint256 public totalSupply;\n    mapping(address => uint) public balanceOf;\n    uint256 commissionFee = 0 ether;\n\n    constructor(\n        ERC20 erc20Address\n        //uint256 amtErc20,\n        //address ownerAddress //no need\n    ) {\n        erc20Contract = erc20Address;\n        //owner = ownerAddress;\n        //erc20contract.transfer(owner, amtErc20); //no need. add the mint() function to erc20.\n    }\n\n    struct Transaction {\n        address user;\n        TransactionTypes transactionType;\n        uint256 transactionRate;\n        uint256 amtEther;\n        uint256 amtErc;\n        uint256 date;\n    }\n\n    modifier onlyOwner {\n        require(msg.sender == owner);\n        _;\n    }\n\n    function getContractOwner() external view returns (address) {\n        return owner;\n    }\n\n    function getTotalAmtEther() external view returns (uint256 balanceAmt) {\n        return amtEtherTotal;\n    }\n\n    function getTotalAmtERC20() external view returns (uint256 balanceAmt) {\n        return amtErc20Total;\n    }\n\n    function getCommissionFeeEarned()\n        external\n        view\n        returns (uint256 balanceAmount)\n    {\n        return commissionFee;\n    }\n\n    //transferCommisionFee()   @bharath    \n    function transferCommisionFeeEarned() external onlyOwner {\n        owner.transfer(commissionFee);\n    }\n\n    function addLiquidityEther(uint256 value) external payable {\n        //user.transfer() ether value. payable\n        owner.transfer(value);\n        amtEtherTotal = amtEtherTotal.add(value);\n    }\n\n    function addLiquidityERC20(uint256 value) external payable {\n        //mint the amount of erc20 in frontend\n        amtErc20Total = amtErc20Total.add(value);\n    }\n\n    // // Only ERC20 contract owner can burn\n    // function burn(uint256 amount)\n    //     public payable returns (uint256 amountEther, uint256 amountErc20) \n    // {\n    //     // Call the ERC20 _burn() contract too\n    //     balanceOf[owner] = balanceOf[owner].sub(amount);\n    //     totalSupply = totalSupply.sub(amount);\n    //     erc20Contract.burn(owner, amount); // ERC20 standard may not support burning tho?\n    // }\n\n    /*function getCurrentPrice() public view returns (uint256) {   //lets just use manual exchange rate first\n        return amtEtherTotal / amtErc20Total;\n    }*/\n\n    function setExchangeRate(uint256 newExchangeRate) public onlyOwner {\n        exchangeRateEtherToErc = newExchangeRate;\n    }\n\n    function exchangeErc20ToEther(uint256 amtErc20In) public payable {\n        //erc20Contract.approve(msg.sender, amtErc20In);      //approve(this.address, amt), this step might need to be frontend now i think about it\n        erc20Contract.transferFrom(msg.sender, owner, amtErc20In);\n        uint256 amtEtherOut = SafeMath.mul(exchangeRateEtherToErc * amtErc20In, SafeMath.div(997, 1000));\n        payable(msg.sender).transfer(amtEtherOut);\n        amtEtherTotal = amtEtherTotal - amtEtherOut;\n        amtErc20Total = amtErc20Total + amtErc20In;\n        commissionFee =\n            commissionFee +\n            SafeMath.mul(exchangeRateEtherToErc * amtErc20In, SafeMath.div(3, 1000));\n    }\n\n    function exchangeEtherToErc20(uint256 amtEtherIn) public payable {\n        require(msg.value == amtEtherIn);\n        uint256 amtEtherInAfterFees = SafeMath.mul(amtEtherIn, SafeMath.div(997, 1000));\n        owner.transfer(amtEtherInAfterFees);\n        erc20Contract.transfer(\n            msg.sender,\n            amtEtherInAfterFees / exchangeRateEtherToErc\n        );\n        amtEtherTotal = amtEtherTotal + amtEtherInAfterFees;\n        amtErc20Total =\n            amtErc20Total -\n            amtEtherInAfterFees /\n            exchangeRateEtherToErc;\n        commissionFee = commissionFee + SafeMath.mul(amtEtherIn, SafeMath.div(3, 1000));\n    }\n}\n",
  "sourcePath": "/Users/bhcs/code/BC_LiquidityProvider/smart-contracts/contracts/Exchange.sol",
  "compiler": {
    "name": "solc",
    "version": "0.8.4+commit.c7e474f2.Emscripten.clang"
  },
  "schemaVersion": "3.4.1",
  "updatedAt": "2021-06-06T11:50:54.959Z",
  "devdoc": {
    "kind": "dev",
    "methods": {},
    "version": 1
  },
  "userdoc": {
    "kind": "user",
    "methods": {},
    "version": 1
  }
}