{
  "contractName": "Exchange",
  "abi": [
    {
      "inputs": [
        {
          "internalType": "contract ERC20",
          "name": "erc20Address",
          "type": "address"
        }
      ],
      "stateMutability": "nonpayable",
      "type": "constructor"
    },
    {
      "inputs": [
        {
          "internalType": "address",
          "name": "",
          "type": "address"
        }
      ],
      "name": "balanceOf",
      "outputs": [
        {
          "internalType": "uint256",
          "name": "",
          "type": "uint256"
        }
      ],
      "stateMutability": "view",
      "type": "function"
    },
    {
      "inputs": [],
      "name": "totalSupply",
      "outputs": [
        {
          "internalType": "uint256",
          "name": "",
          "type": "uint256"
        }
      ],
      "stateMutability": "view",
      "type": "function"
    },
    {
      "inputs": [],
      "name": "getContractOwner",
      "outputs": [
        {
          "internalType": "address",
          "name": "owner",
          "type": "address"
        }
      ],
      "stateMutability": "view",
      "type": "function"
    },
    {
      "inputs": [],
      "name": "getTotalAmtEther",
      "outputs": [
        {
          "internalType": "uint256",
          "name": "balanceAmt",
          "type": "uint256"
        }
      ],
      "stateMutability": "view",
      "type": "function"
    },
    {
      "inputs": [],
      "name": "getTotalAmtERC20",
      "outputs": [
        {
          "internalType": "uint256",
          "name": "balanceAmt",
          "type": "uint256"
        }
      ],
      "stateMutability": "view",
      "type": "function"
    },
    {
      "inputs": [],
      "name": "getCommissionFeeEarned",
      "outputs": [
        {
          "internalType": "uint256",
          "name": "balanceAmount",
          "type": "uint256"
        }
      ],
      "stateMutability": "view",
      "type": "function"
    },
    {
      "inputs": [],
      "name": "transferCommisionFeeEarned",
      "outputs": [],
      "stateMutability": "nonpayable",
      "type": "function"
    },
    {
      "inputs": [
        {
          "internalType": "uint256",
          "name": "value",
          "type": "uint256"
        }
      ],
      "name": "addLiquidityEther",
      "outputs": [],
      "stateMutability": "payable",
      "type": "function"
    },
    {
      "inputs": [
        {
          "internalType": "uint256",
          "name": "value",
          "type": "uint256"
        }
      ],
      "name": "addLiquidityERC20",
      "outputs": [],
      "stateMutability": "nonpayable",
      "type": "function"
    },
    {
      "inputs": [
        {
          "internalType": "uint256",
          "name": "amount",
          "type": "uint256"
        }
      ],
      "name": "burn",
      "outputs": [
        {
          "internalType": "uint256",
          "name": "amountEther",
          "type": "uint256"
        },
        {
          "internalType": "uint256",
          "name": "amountErc20",
          "type": "uint256"
        }
      ],
      "stateMutability": "nonpayable",
      "type": "function"
    },
    {
      "inputs": [
        {
          "internalType": "uint256",
          "name": "newExchangeRate",
          "type": "uint256"
        }
      ],
      "name": "setExchangeRate",
      "outputs": [],
      "stateMutability": "nonpayable",
      "type": "function"
    },
    {
      "inputs": [
        {
          "internalType": "uint256",
          "name": "amtErc20In",
          "type": "uint256"
        }
      ],
      "name": "exchangeErc20ToEther",
      "outputs": [],
      "stateMutability": "payable",
      "type": "function"
    },
    {
      "inputs": [
        {
          "internalType": "uint256",
          "name": "amtEtherIn",
          "type": "uint256"
        }
      ],
      "name": "exchangeEtherToErc20",
      "outputs": [],
      "stateMutability": "payable",
      "type": "function"
    }
  ],
  "bytecode": "0x6080604052336000806101000a81548173ffffffffffffffffffffffffffffffffffffffff021916908373ffffffffffffffffffffffffffffffffffffffff160217905550600060025560006003556706f05b59d3b20000600455600060075534801561006b57600080fd5b50604051610fc3380380610fc3833981810160405281019061008d91906100e9565b80600160006101000a81548173ffffffffffffffffffffffffffffffffffffffff021916908373ffffffffffffffffffffffffffffffffffffffff1602179055505061016d565b6000815190506100e381610156565b92915050565b6000602082840312156100fb57600080fd5b6000610109848285016100d4565b91505092915050565b600061011d82610136565b9050919050565b600061012f82610112565b9050919050565b600073ffffffffffffffffffffffffffffffffffffffff82169050919050565b61015f81610124565b811461016a57600080fd5b50565b610e478061017c6000396000f3fe6080604052600436106100c25760003560e01c80635ecbff1e1161007f57806393f3f0b91161005957806393f3f0b91461023d578063b11447dc14610266578063b7e39a5a14610291578063db068e0e146102ad576100c2565b80635ecbff1e146101b957806370a08231146101e457806376bc9ae414610221576100c2565b806318160ddd146100c75780631f99ff88146100f257806331c0b2a51461010e57806342966c6814610139578063442890d514610177578063486360af146101a2575b600080fd5b3480156100d357600080fd5b506100dc6102d6565b6040516100e99190610b97565b60405180910390f35b61010c60048036038101906101079190610a9d565b6102dc565b005b34801561011a57600080fd5b50610123610358565b6040516101309190610b97565b60405180910390f35b34801561014557600080fd5b50610160600480360381019061015b9190610a9d565b610362565b60405161016e929190610bb2565b60405180910390f35b34801561018357600080fd5b5061018c6104f9565b6040516101999190610af3565b60405180910390f35b3480156101ae57600080fd5b506101b76104fe565b005b3480156101c557600080fd5b506101ce6105c1565b6040516101db9190610b97565b60405180910390f35b3480156101f057600080fd5b5061020b60048036038101906102069190610a4b565b6105cb565b6040516102189190610b97565b60405180910390f35b61023b60048036038101906102369190610a9d565b6105e3565b005b34801561024957600080fd5b50610264600480360381019061025f9190610a9d565b610790565b005b34801561027257600080fd5b5061027b6107a5565b6040516102889190610b97565b60405180910390f35b6102ab60048036038101906102a69190610a9d565b6107af565b005b3480156102b957600080fd5b506102d460048036038101906102cf9190610a9d565b610952565b005b60055481565b60008054906101000a900473ffffffffffffffffffffffffffffffffffffffff1673ffffffffffffffffffffffffffffffffffffffff166108fc829081150290604051600060405180830381858888f19350505050158015610342573d6000803e3d6000fd5b5061034f600254826109b4565b60028190555050565b6000600254905090565b6000806103cf600660008060009054906101000a900473ffffffffffffffffffffffffffffffffffffffff1673ffffffffffffffffffffffffffffffffffffffff1673ffffffffffffffffffffffffffffffffffffffff16815260200190815260200160002054846109ca565b600660008060009054906101000a900473ffffffffffffffffffffffffffffffffffffffff1673ffffffffffffffffffffffffffffffffffffffff1673ffffffffffffffffffffffffffffffffffffffff1681526020019081526020016000208190555061043f600554846109ca565b600581905550600160009054906101000a900473ffffffffffffffffffffffffffffffffffffffff1673ffffffffffffffffffffffffffffffffffffffff16639dc29fac60008054906101000a900473ffffffffffffffffffffffffffffffffffffffff16856040518363ffffffff1660e01b81526004016104c2929190610b0e565b600060405180830381600087803b1580156104dc57600080fd5b505af11580156104f0573d6000803e3d6000fd5b50505050915091565b600090565b60008054906101000a900473ffffffffffffffffffffffffffffffffffffffff1673ffffffffffffffffffffffffffffffffffffffff163373ffffffffffffffffffffffffffffffffffffffff161461055657600080fd5b60008054906101000a900473ffffffffffffffffffffffffffffffffffffffff1673ffffffffffffffffffffffffffffffffffffffff166108fc6007549081150290604051600060405180830381858888f193505050501580156105be573d6000803e3d6000fd5b50565b6000600754905090565b60066020528060005260406000206000915090505481565b8034146105ef57600080fd5b6000610608826106036103e56103e86109e0565b6109f6565b905060008054906101000a900473ffffffffffffffffffffffffffffffffffffffff1673ffffffffffffffffffffffffffffffffffffffff166108fc829081150290604051600060405180830381858888f19350505050158015610670573d6000803e3d6000fd5b50600160009054906101000a900473ffffffffffffffffffffffffffffffffffffffff1673ffffffffffffffffffffffffffffffffffffffff1663a9059cbb33600454846106be9190610c31565b6040518363ffffffff1660e01b81526004016106db929190610b6e565b602060405180830381600087803b1580156106f557600080fd5b505af1158015610709573d6000803e3d6000fd5b505050506040513d601f19601f8201168201806040525081019061072d9190610a74565b508060025461073c9190610bdb565b600281905550600454816107509190610c31565b60035461075d9190610cbc565b6003819055506107798261077460036103e86109e0565b6109f6565b6007546107869190610bdb565b6007819055505050565b61079c600354826109b4565b60038190555050565b6000600354905090565b600160009054906101000a900473ffffffffffffffffffffffffffffffffffffffff1673ffffffffffffffffffffffffffffffffffffffff166323b872dd3360008054906101000a900473ffffffffffffffffffffffffffffffffffffffff16846040518463ffffffff1660e01b815260040161082e93929190610b37565b602060405180830381600087803b15801561084857600080fd5b505af115801561085c573d6000803e3d6000fd5b505050506040513d601f19601f820116820180604052508101906108809190610a74565b5060006108a7826004546108949190610c62565b6108a26103e56103e86109e0565b6109f6565b90503373ffffffffffffffffffffffffffffffffffffffff166108fc829081150290604051600060405180830381858888f193505050501580156108ef573d6000803e3d6000fd5b50806002546108fe9190610cbc565b600281905550816003546109129190610bdb565b60038190555061093b826004546109299190610c62565b61093660036103e86109e0565b6109f6565b6007546109489190610bdb565b6007819055505050565b60008054906101000a900473ffffffffffffffffffffffffffffffffffffffff1673ffffffffffffffffffffffffffffffffffffffff163373ffffffffffffffffffffffffffffffffffffffff16146109aa57600080fd5b8060048190555050565b600081836109c29190610bdb565b905092915050565b600081836109d89190610cbc565b905092915050565b600081836109ee9190610c31565b905092915050565b60008183610a049190610c62565b905092915050565b600081359050610a1b81610dcc565b92915050565b600081519050610a3081610de3565b92915050565b600081359050610a4581610dfa565b92915050565b600060208284031215610a5d57600080fd5b6000610a6b84828501610a0c565b91505092915050565b600060208284031215610a8657600080fd5b6000610a9484828501610a21565b91505092915050565b600060208284031215610aaf57600080fd5b6000610abd84828501610a36565b91505092915050565b610acf81610d38565b82525050565b610ade81610cf0565b82525050565b610aed81610d2e565b82525050565b6000602082019050610b086000830184610ad5565b92915050565b6000604082019050610b236000830185610ac6565b610b306020830184610ae4565b9392505050565b6000606082019050610b4c6000830186610ad5565b610b596020830185610ac6565b610b666040830184610ae4565b949350505050565b6000604082019050610b836000830185610ad5565b610b906020830184610ae4565b9392505050565b6000602082019050610bac6000830184610ae4565b92915050565b6000604082019050610bc76000830185610ae4565b610bd46020830184610ae4565b9392505050565b6000610be682610d2e565b9150610bf183610d2e565b9250827fffffffffffffffffffffffffffffffffffffffffffffffffffffffffffffffff03821115610c2657610c25610d6e565b5b828201905092915050565b6000610c3c82610d2e565b9150610c4783610d2e565b925082610c5757610c56610d9d565b5b828204905092915050565b6000610c6d82610d2e565b9150610c7883610d2e565b9250817fffffffffffffffffffffffffffffffffffffffffffffffffffffffffffffffff0483118215151615610cb157610cb0610d6e565b5b828202905092915050565b6000610cc782610d2e565b9150610cd283610d2e565b925082821015610ce557610ce4610d6e565b5b828203905092915050565b6000610cfb82610d0e565b9050919050565b60008115159050919050565b600073ffffffffffffffffffffffffffffffffffffffff82169050919050565b6000819050919050565b6000610d4382610d4a565b9050919050565b6000610d5582610d5c565b9050919050565b6000610d6782610d0e565b9050919050565b7f4e487b7100000000000000000000000000000000000000000000000000000000600052601160045260246000fd5b7f4e487b7100000000000000000000000000000000000000000000000000000000600052601260045260246000fd5b610dd581610cf0565b8114610de057600080fd5b50565b610dec81610d02565b8114610df757600080fd5b50565b610e0381610d2e565b8114610e0e57600080fd5b5056fea26469706673582212209a7df352e611862b255f0bfe394b2b0c61cd5310af0fce780a401e8c1e4a49b864736f6c63430008040033",
  "immutableReferences": {},
  "source": "pragma solidity ^0.8.0;\r\n\r\nimport \"@openzeppelin/contracts/utils/math/SafeMath.sol\";\r\nimport \"./ERC20.sol\";\r\n\r\ncontract Exchange {\r\n    address payable owner = payable(msg.sender);\r\n    ERC20 erc20Contract;\r\n    enum TransactionTypes {EtherToErc, ErcToEther}\r\n\r\n    // Make use of SafeMath to do calculation that will not be result in overflow / incorrectness\r\n    using SafeMath for uint256;\r\n\r\n    uint256 amtEtherTotal = 0 ether;\r\n    uint256 amtErc20Total = 0 ether;\r\n    // TODO: Change this arbitrary value to something that makes more sense\r\n    uint256 exchangeRateEtherToErc = 0.5 ether;\r\n\r\n    // TODO: This variable might not be needed depending on the behaviour of _burn() function\r\n    uint256 public totalSupply;\r\n    mapping(address => uint) public balanceOf;\r\n    uint256 commissionFee = 0 ether;\r\n\r\n    constructor(\r\n        ERC20 erc20Address\r\n        //uint256 amtErc20,\r\n        //address ownerAddress //no need\r\n    ) {\r\n        erc20Contract = erc20Address;\r\n        //owner = ownerAddress;\r\n        //erc20contract.transfer(owner, amtErc20); //no need. add the mint() function to erc20.\r\n    }\r\n\r\n    struct Transaction {\r\n        address user;\r\n        TransactionTypes transactionType;\r\n        uint256 transactionRate;\r\n        uint256 amtEther;\r\n        uint256 amtErc;\r\n        uint256 date;\r\n    }\r\n\r\n    modifier onlyOwner {\r\n        require(msg.sender == owner);\r\n        _;\r\n    }\r\n\r\n    function getContractOwner() external view returns (address owner) {\r\n        return owner;\r\n    }\r\n\r\n    function getTotalAmtEther() external view returns (uint256 balanceAmt) {\r\n        return amtEtherTotal;\r\n    }\r\n\r\n    function getTotalAmtERC20() external view returns (uint256 balanceAmt) {\r\n        return amtErc20Total;\r\n    }\r\n\r\n    function getCommissionFeeEarned()\r\n        external\r\n        view\r\n        returns (uint256 balanceAmount)\r\n    {\r\n        return commissionFee;\r\n    }\r\n\r\n    //transferCommisionFee()   @bharath    \r\n    function transferCommisionFeeEarned() external onlyOwner {\r\n        owner.transfer(commissionFee);\r\n    }\r\n\r\n    function addLiquidityEther(uint256 value) public payable {\r\n        owner.transfer(value);\r\n        amtEtherTotal = SafeMath.add(amtEtherTotal, value);\r\n    }\r\n\r\n    function addLiquidityERC20(uint256 value) public {\r\n        //mint the amount of erc20 in frontend\r\n        amtErc20Total = SafeMath.add(amtErc20Total, value);\r\n    }\r\n\r\n    // Only ERC20 contract owner can burn\r\n    function burn(uint256 amount) public\r\n        returns (uint256 amountEther, uint256 amountErc20)\r\n    {\r\n        // Call the ERC20 _burn() contract too\r\n        balanceOf[owner] = SafeMath.sub(balanceOf[owner], amount);\r\n        totalSupply = SafeMath.sub(totalSupply, amount);\r\n        erc20Contract.burn(owner, amount);\r\n    }\r\n\r\n    /*function getCurrentPrice() public view returns (uint256) {   //lets just use manual exchange rate first\r\n        return amtEtherTotal / amtErc20Total;\r\n    }*/\r\n\r\n    function setExchangeRate(uint256 newExchangeRate) public onlyOwner {\r\n        exchangeRateEtherToErc = newExchangeRate;\r\n    }\r\n\r\n    function exchangeErc20ToEther(uint256 amtErc20In) public payable {\r\n        //erc20Contract.approve(msg.sender, amtErc20In);      //approve(this.address, amt), this step might need to be frontend now i think about it\r\n        erc20Contract.transferFrom(msg.sender, owner, amtErc20In);\r\n        uint256 amtEtherOut = SafeMath.mul(exchangeRateEtherToErc * amtErc20In, SafeMath.div(997, 1000));\r\n        payable(msg.sender).transfer(amtEtherOut);\r\n        amtEtherTotal = amtEtherTotal - amtEtherOut;\r\n        amtErc20Total = amtErc20Total + amtErc20In;\r\n        commissionFee =\r\n            commissionFee +\r\n            SafeMath.mul(exchangeRateEtherToErc * amtErc20In, SafeMath.div(3, 1000));\r\n    }\r\n\r\n    function exchangeEtherToErc20(uint256 amtEtherIn) public payable {\r\n        require(msg.value == amtEtherIn);\r\n        uint256 amtEtherInAfterFees = SafeMath.mul(amtEtherIn, SafeMath.div(997, 1000));\r\n        owner.transfer(amtEtherInAfterFees);\r\n        erc20Contract.transfer(\r\n            msg.sender,\r\n            amtEtherInAfterFees / exchangeRateEtherToErc\r\n        );\r\n        amtEtherTotal = amtEtherTotal + amtEtherInAfterFees;\r\n        amtErc20Total =\r\n            amtErc20Total -\r\n            amtEtherInAfterFees /\r\n            exchangeRateEtherToErc;\r\n        commissionFee = commissionFee + SafeMath.mul(amtEtherIn, SafeMath.div(3, 1000));\r\n    }\r\n}\r\n",
  "sourcePath": "C:/Users/Hans Sebastian/Desktop/LiquidityProvider/contracts/Exchange.sol",
  "compiler": {
    "name": "solc",
    "version": "0.8.4+commit.c7e474f2.Emscripten.clang"
  },
  "schemaVersion": "3.4.1",
  "updatedAt": "2021-06-06T11:18:50.224Z",
  "devdoc": {
    "kind": "dev",
    "methods": {},
    "version": 1
  },
  "userdoc": {
    "kind": "user",
    "methods": {},
    "version": 1
  }
}